:10000000DFEF07F00000000000EF00F0000000004C
:0A0010000000000000000000F3D71C
:0E001C00026A016A006A086A036A000E120096
:08002A000AAE029E000E120056
:100032000B840BAE24EF00F0010E036E026A016A1C
:0A004200006A0A360232FF0E1200B7
:10004C000B820BAE30EF00F00368026801680068A9
:08005C000A360232FF0E120009
:100064000CB074EF00F00CA21AEF01F00E6A000E4F
:1000740002648BEF00F0F00E0214D8A456EF00F0E7
:10008400023A01380F0B02260138F00B016E0038DA
:100094000F0B01260038F00B006E08380F0B0026FA
:1000A4000838F00B086E0E84D89002BE6FEF00F093
:1000B40008360036013602360E2A02BE6FEF00F013
:1000C40008360036013602360E2A02BE6FEF00F003
:1000D40008360036013602360E2A0E50036410EF3D
:1000E40001F0035E0BBC08AE15EF01F0D880800E62
:1000F40008640030000E002201220222D8A015EF6D
:1001040001F0023201320032034A1AEF01F015EF16
:1001140001F001C002F000C001F008C000F0086A5C
:10012400000E0E860264C2EF00F0F00E0214D8A492
:10013400AAEF00F0023A01380F0B02260138F00B47
:10014400016E00380F0B01260038F00B006E0E8490
:10015400D89002BE6FEF00F00036013602360E2A48
:1001640002BE6FEF00F00036013602360E2A02BEE0
:100174006FEF00F00036013602360E2A6FEF00F002
:1001840001C002F000C001F0006A000E0E960E8855
:100194000264EFEF00F0F00E0214D8A4DAEF00F0DE
:1001A400023A01380F0B02260138F00B016E0E845F
:1001B400D89002BE6FEF00F0013602360E2A02BE5E
:1001C4006FEF00F0013602360E2A02BE6FEF00F028
:1001D400013602360E2A6FEF00F001C002F0016A08
:1001E400000E0E8602641FEF01F0F00E0214D8A474
:1001F400FEEF00F0023A0E84D89002BE6FEF00F0DA
:1002040002360E2A02BE6FEF00F002360E2A02BE3C
:100214006FEF00F002360E2A6FEF00F0010E0C6E45
:1002240006DF22EF01F0020E0C6EFDDE22EF01F07C
:10023400040E0C6E09DF22EF01F0080E0C6EECDEEA
:020244001200A6
:06024600000000001200A0
:0A024C00210E0D6E0D2EFED71200DC
:100256000F0E0C6E470E0D6E0D2EFED70C2EFCD714
:0602660000000000120080
:0C026C000E0E0D6E0D2EFED700001200CD
:1002780000018EBF02D0839601D083868EBD02D046
:10028800839401D083848EBB02D0839201D0838271
:100298008EB902D0839001D0838052B002D0838877
:1002A80001D08398838ACBDF839A8EB702D0839656
:1002B80001D083868EB502D0839401D083848EB317
:1002C80002D0839201D083828EB102D0839001D074
:1002D800838052B002D0838801D08398838AAFDFAD
:0E02E800839A52A002D0B3DF01D0ACDF120027
:1002F6000C6A0E6A0250D8A494EF01F001C002F015
:1003060000C001F0006A0E860250D8A494EF01F0F6
:1003160001C002F0016A0E960E880250D8B4A6EF0C
:1003260001F00E50035ED8A4D8A0ABEF01F0D89030
:1003360002BEB0EF01F0003601360236032E9BEF07
:1003460001F0ABEF01F0010E0C6E65DEB3EF01F0CC
:10035600020E0C6E6BDEB3EF01F0040E0C6E62DE65
:02036600120083
:10036800025006180E6E086A096A0B6A0350076481
:10037800A7EF02F006500A6E068E028E03500B6E2F
:100388000750036E000E0B64F7EF01F00B50075E89
:10039800D8B498EF02F0070E076466EF02F0075E24
:1003A80000C008F001C000F002C001F0026A074E68
:1003B80098EF02F007643BEF02F0075E00C008F018
:1003C80001C000F0016A074E98EF02F0076419EFC8
:1003D80002F0075E00C008F0006A074E98EF02F0CE
:1003E800076400EF02F00AC002F005C001F004C083
:1003F80000F0086AC1EF03F0030E07640BEF02F088
:10040800075E08380F0B086E074E98EF02F0D89079
:100418000832074E98EF02F0D8900832074E98EF4E
:1004280002F0D890083298EF02F0030E07642AEF22
:1004380002F0075E08380F0B086E0038F00B08262C
:1004480000380F0B006E074E98EF02F0D89000327C
:100458000832074E98EF02F0D89000320832074E63
:1004680098EF02F0D8900032083298EF02F0030EAD
:10047800076452EF02F0075E08380F0B086E003869
:10048800F00B082600380F0B006E0138F00B002621
:1004980001380F0B016E074E98EF02F0D890013229
:1004A80000320832074E98EF02F0D890013200323D
:1004B8000832074E98EF02F0D89001320032083225
:1004C80098EF02F0030E076483EF02F0075E083826
:1004D8000F0B086E0038F00B082600380F0B006E63
:1004E8000138F00B002601380F0B016E0238F00BB3
:1004F800012602380F0B026E074E98EF02F0D890D3
:100508000232013200320832074E98EF02F0D890DA
:100518000232013200320832074E98EF02F0D890CA
:100528000232013200320832096A000E0EAE8CEF38
:1005380003F0081E001E011E021E082A00220122C6
:1005480002228CEF03F00750D8A4ADEF02F0C1EF00
:1005580003F0096A02C00AF0028E068E0750035C97
:10056800076ED8B47FEF03F0070E07644DEF03F072
:10057800075E0450096E0550046E0650056E066A43
:10058800074E7FEF03F0070E076422EF03F0075EC4
:100598000450096E0550046E056A074E7FEF03F09C
:1005A800070E076400EF03F0075E0450096E046A43
:1005B800074E7FEF03F0070E0764E7EF02F00AC06B
:1005C80002F0C1EF03F0030E0764F2EF02F0075EDA
:1005D80009380F0B096E074E7FEF03F0D8900932E8
:1005E800074E7FEF03F0D8900932074E7FEF03F0F4
:1005F800D89009327FEF03F0030E076411EF03F080
:10060800075E09380F0B096E0438F00B0926043809
:100618000F0B046E074E7FEF03F0D89004320932B7
:10062800074E7FEF03F0D89004320932074E7FEF70
:1006380003F0D890043209327FEF03F0030E076409
:1006480039EF03F0075E09380F0B096E0438F00B19
:10065800092604380F0B046E0538F00B04260538FC
:100668000F0B056E074E7FEF03F0D890053204326A
:100678000932074E7FEF03F0D89005320432093271
:10068800074E7FEF03F0D8900532043209327FEF2E
:1006980003F0030E07646AEF03F0075E09380F0BD7
:1006A800096E0438F00B092604380F0B046E053860
:1006B800F00B042605380F0B056E0638F00B0526DF
:1006C80006380F0B066E074E7FEF03F0D890063200
:1006D800053204320932074E7FEF03F0D890063214
:1006E800053204320932074E7FEF03F0D890063204
:1006F800053204320932086A000E0EAE8CEF03F0A0
:10070800091E041E051E061E092A042205220622A9
:1007180009500826045000220550012206500222E2
:100728000EBEA3EF03F0D8A0B2EF03F002320132FD
:1007380000320832033EB2EF03F0BCEF03F0D8B04A
:10074800B7EF03F0000E081E001E011E021E082A45
:100758000022012202220A7EB7EF03F0010E0C6E7E
:100768007DDCC3EF03F0020E0C6E78DCC3EF03F000
:10077800040E0C6E67DCC3EF03F0000E0C6E120063
:080788000B6A0B86FF0E120044
:100790000B6A0A6A096A00500402F4CF09F0F3CF29
:1007A00008F001500502F4CF0BF0F3CF0AF000502F
:1007B0000502F3500926F4500A22E86A0B22015080
:1007C0000402F3500926F4500A22E86A0B2208C0FA
:1007D00000F009C001F00AC002F00BC003F01200E3
:1007E000086A096A100E0C6E013408360936045086
:1007F000085E0550D8A0053C095ED8B007D004506B
:1008000008260550D8B0053C0926D8900036013698
:060810000C2EEAD71200D5
:100816000B800BAE17EF04F0026A0AAEFF0E026EF3
:0C082600016E006E0A360232FF0E120056
:06083200067E99DD1200B4
:1008380000018B6B050E8B5D0AE28B518925E16EF9
:10084800000E8A21E26E200EE66E8B2BF3D78B51B9
:100858008925E16E000E8A21E26EE66A8B078B51CC
:1008680089258C6F000E8A218D6F0A0E046E000E8A
:10087800056E87C000F088C001F0AEDF08C000F048
:1008880009C001F0300E00268CC0E1FF8DC0E2FFE8
:1008980000C0E6FF0A0E046E000E056E87C000F069
:1008A80088C001F099DF00C087F001C088F0000E11
:1008B800011802E1000E001801E102D08B07CFD722
:0208C80012001C
:1008CA000450000A12E10550000A0FE10650000A1E
:1008DA000CE10750000A09E1FF0E006EFF0E016EDF
:1008EA007F0E026EFF0E036EA7D0086A096A0750D0
:1008FA00D8B410EF05F00350D8B414EF05F0025045
:10090A0006180A6E028E068E0E6A02C008F001C030
:10091A000CF000C00DF004500D5E0550D8A0053C47
:10092A000C5E0650D8A0063C085E086A0C6A0D6A7E
:10093A00D8A0A7EF04F0D890023201320032083270
:10094A00010E0E6E0750035ED8A0B4EF04F07E0EBF
:10095A000E240326D8B019EF05F0BAEF04F07E0E84
:10096A000E240326D8A01EEF05F0180E0B6E0D36C6
:10097A000C3608360036013602360E360450005E52
:10098A000550D8A0053C015E0650D8A0063C025E80
:10099A0006340E120EA0D5EF04F00D80E0EF04F03D
:1009AA00045000260550D8B0053C01260650D8B0A0
:1009BA00062802260D900B2EBCEF04F006EF05F078
:1009CA00D8900036013602360E360450005E0550C5
:1009DA00D8A0053C015E0650D8A0063C025E06344B
:1009EA000E10010B0D26D8B00C2AD8B4082AD8A4A8
:1009FA0006EF05F008320C320D32032AD8B419EF8B
:100A0A0005F00AAE089E0850026E0C50016E0D5099
:100A1A00006E21EF05F0010EB2DE21EF05F0020EA5
:100A2A000EEC00F021EF05F0040E26EC00F021EFA9
:0A0A3A0005F0080E19EC00F01200A0
:100A4400CB50010F006E016A000E012287C004F032
:100A5400000E056E9BDE060E026E00C004F001C09F
:100A640005F0025005E005320432059EFF0FFAD767
:100A7400040E016E04C000F0015004E00036009042
:100A8400FF0FFBD7300E0014036E04C000F005C046
:100A940001F001320032019E01320032019E00C099
:0C0AA400BEFF0F0EBD160350BD12120065
:0E0AB000529087C08EF03CEC01F05280120094
:100ABE000050086E0150006E016A026A036A0B6AEA
:100ACE000C6A960E036E0A6A00C001F008C000F0B0
:080ADE00086A026A09DC12003B
:100AE6000B6A0350D8B4B9EF05F002500A6E028EB5
:100AF6008E0E035E03AEBDEF05F0036C080E035CBD
:100B0600D8A098EF05F0036E013602C001F0026A24
:100B1600080E035CD8A098EF05F0036E0136016A53
:100B26000350D8A4D890A2EF05F00350D8B4A2EF92
:100B360005F0D89002320132032E9CEF05F00BBC73
:100B460001A0AFEF05F0D8A0AFEF05F0012AD8B4A9
:100B5600022A02BECCEF05F00AAED1EF05F0021E66
:100B6600011E012AD8B4022AD1EF05F0026A016AF1
:100B7600D1EF05F00B800BAED5EF05F0026A0AAE99
:100B8600D5EF05F0FF0E026E016E0A360232D5EF82
:100B960005F0010E0C6E3CDED7EF05F0000E0C6E74
:100BA600D7EF05F0FF0E0C6E0150006E0250016E7D
:020BB60012002B
:100BB800C26AC00EC212C18CC18E87C000F0003656
:100BC800009000360090003600900050C212C2809B
:100BD80036EC01F0C284C2A401D0FDD7C4CF01F025
:0E0BE800006AC3500012000E0112C2901200EB
:100BF6000FD0800E7C6E19D0C00E7C6E16D0940E6F
:100C06007C6E13D0D40E7C6E10D0800E7C6E0DD010
:100C16007C50010AEEE07C50020AEEE07C50030AAA
:100C2600EEE07C50040AEEE0F0D77D04006E7C50C6
:100C3600002600C07CF000C08EF03CEC01F0529023
:100C4600806B80517E24E96E000E7F20EA6EEE52A4
:100C56000BE080517E24E96E000E7F20EA6EEECF17
:0C0C660087F023DF802BEDD752801200B6
:100C72000900F5CFE6FF0006FBE10106F9E11200EB
:100C8200FF0E4E6EFF0E4F6EFF0E506EFF0E516E38
:0E0C9200C26AC00EC212C18CC18EC280120096
:100CA000959A95989590959295949596839A839810
:100CB00083968394839283902BEC01F02BEC01F0CC
:100CC0002BEC01F083828380838A23EC01F0839AEA
:100CD0002BEC01F0838A23EC01F0839A2BEC01F0DA
:100CE000838A23EC01F0839A2BEC01F08390838AB2
:100CF00023EC01F0839A2BEC01F0838A23EC01F0C2
:100D0000839A83928386838A23EC01F0839A2BEC67
:100D100001F083968380838A23EC01F0839A839089
:100D2000838A23EC01F0839A2BEC01F0838A23EC75
:100D300001F0839A8380838A23EC01F0839A2BEC61
:100D400001F08390838A23EC01F0839A8386838465
:100D500083828380838A23EC01F0839A2BEC01F059
:040D600052801200AB
:0A0D64009494CA840C0EBD12120014
:080D6E00BE6ABD98BD9A120097
:100D760081A005D04C4A4D2A81A001D0FDD781A281
:100D860010D0800E006E800E4D18005C02E14C50B3
:100D9600000807E2010E4C5E000E4D5A81A201D0FA
:0C0DA600FDD74CC000F04DC001F0120061
:100DB2000001876B00DF050E046E000E056EE7DC96
:100DC200640E046E000E056EE2DC0A0E046E00C0B4
:100DD20002F001C003F0045005E003320232039E28
:0E0DE200FF0FFAD702C000F003C001F01200AC
:100DF0000001836B846B7CC085F07DC086F0800E23
:100E00007D18006E800E005C02E1000E7C5C0BE23F
:100E1000010E836F000E846F7C500008856F7DC0CB
:100E200086F0000E865785C087F086C088F07EC0A9
:100E300089F07FC08AF000DD060E816F000E826FA0
:100E4000000E006E8251005C02E18151000819E23F
:100E500081517E24E16E82517F20E26E010E815D20
:100E6000006E000E8259016E00507E24E96E015022
:100E70007F20EA6EEECFE6FF010E815F000E825BFF
:100E8000DFD77EC0E1FF7FC0E2FF200EE66E835118
:100E900084111AE0816B826B81517E24E96E82514C
:100EA0007F20EA6EEE50200A03E1814B822BF4D7BB
:100EB000010E815F000E825B81517E24E16E8251C2
:0A0EC0007F20E26E2D0EE66E120098
:100ECA00800E7D18006E800E005C02E1140E7C5CC0
:100EDA0002E2838E01D0839E800E006E800E7D1802
:100EEA00005C02E17C5019080EE2800E7D18006E4B
:100EFA00800E005C02E11E0E7C5C05E2640E0001BD
:100F0A00876F9BDD28D0800E006E800E7D18005CF6
:100F1A0002E17C501E080EE2800E7D18006E800EE3
:100F2A00005C02E1230E7C5C05E2C00E0001876FC3
:100F3A0084DD11D0800E006E800E7D18005C02E107
:100F4A007C50230805E2FF0E0001876F76DD03D08F
:080F5A000001876B72DD12003B
:100F6200800E006E800E7D18005C02E17C505008FD
:0A0F720002E3838C01D0839C12007F
:100F7C00010E0001876F1ADE9CDD0A0E046ED70E7F
:100F8C00056E230E066E820E076E99DC00C004F00F
:100F9C0001C005F002C006F003C007F0000E006EA1
:100FAC00000E016E480E026E850E036E3CDC95DD64
:020FBC00120021
:100FBE0095EC08F0FF0E926E956A946AFF0E936E92
:100FCE00839C839E66DE56DECA80CA92630ECB6E0B
:100FDE00C7DEC1DE0C0E00018E6F3CEC01F0010E7F
:100FEE007C6E020E7D6E3C0E7E6E000E7F6EFCDD04
:100FFE00020E7C6E010E7D6E150E7E6E000E7F6EE5
:10100E00F3DD030E7C6E010E7D6E220E7E6E000EE3
:10101E007F6EEADD040E7C6E010E7D6E2F0E7E6EEF
:10102E00000E7F6EE1DDA3DF00C064F001C065F04D
:10103E0000C07CF001C07DF0680E7E6E000E7F6EEB
:10104E00D0DE040E7C6E0C0E7D6E680E7E6E000E73
:10105E007F6ECADDA7DE00C062F001C063F000C083
:10106E007CF001C07DF0580E7E6E000E7F6EB9DEF4
:10107E00030E7C6E0E0E7D6E580E7E6E000E7F6E13
:10108E00B3DD72DE00C066F001C067F000C07CF018
:10109E0001C07DF0530E7E6E000E7F6EA2DE020E3C
:1010AE007C6E0C0E7D6E530E7E6E000E7F6E9CDD82
:1010BE00800E006E800E6718005C02E1665000081C
:1010CE000BE264C07CF065C07DF044DF62C07CF052
:1010DE0063C07DF0F3DE03D0839E839C8296A3D7FC
:0210EE00FFD72A
:10112A0010EE15F0390E006E010E016EF00EF66E1D
:0E113A00100EF76E000EF86E39EC06F0120083
:0D10F0004E6F206F66207065706C3A200016
:0D10FD0054656D707261747572653A200063
:0D110A004C6967687420496E7465733A0083
:10111700484F4D45204155544F4D4154494F4E007E
:021127000000C6
:020000040030CA
:0D000100220F0EFF0181FF0FC00FE00F4026
:00000001FF
